{
  "_format": "hh-sol-artifact-1",
  "contractName": "TalaNFT",
  "sourceName": "contracts/TalaNFT.sol",
  "abi": [
    {
      "inputs": [
        {
          "internalType": "address",
          "name": "deployer",
          "type": "address"
        }
      ],
      "stateMutability": "nonpayable",
      "type": "constructor"
    },
    {
      "anonymous": false,
      "inputs": [
        {
          "indexed": true,
          "internalType": "address",
          "name": "owner",
          "type": "address"
        },
        {
          "indexed": true,
          "internalType": "address",
          "name": "approved",
          "type": "address"
        },
        {
          "indexed": true,
          "internalType": "uint256",
          "name": "tokenId",
          "type": "uint256"
        }
      ],
      "name": "Approval",
      "type": "event"
    },
    {
      "anonymous": false,
      "inputs": [
        {
          "indexed": true,
          "internalType": "address",
          "name": "owner",
          "type": "address"
        },
        {
          "indexed": true,
          "internalType": "address",
          "name": "operator",
          "type": "address"
        },
        {
          "indexed": false,
          "internalType": "bool",
          "name": "approved",
          "type": "bool"
        }
      ],
      "name": "ApprovalForAll",
      "type": "event"
    },
    {
      "anonymous": false,
      "inputs": [
        {
          "indexed": true,
          "internalType": "bytes32",
          "name": "role",
          "type": "bytes32"
        },
        {
          "indexed": true,
          "internalType": "bytes32",
          "name": "previousAdminRole",
          "type": "bytes32"
        },
        {
          "indexed": true,
          "internalType": "bytes32",
          "name": "newAdminRole",
          "type": "bytes32"
        }
      ],
      "name": "RoleAdminChanged",
      "type": "event"
    },
    {
      "anonymous": false,
      "inputs": [
        {
          "indexed": true,
          "internalType": "bytes32",
          "name": "role",
          "type": "bytes32"
        },
        {
          "indexed": true,
          "internalType": "address",
          "name": "account",
          "type": "address"
        },
        {
          "indexed": true,
          "internalType": "address",
          "name": "sender",
          "type": "address"
        }
      ],
      "name": "RoleGranted",
      "type": "event"
    },
    {
      "anonymous": false,
      "inputs": [
        {
          "indexed": true,
          "internalType": "bytes32",
          "name": "role",
          "type": "bytes32"
        },
        {
          "indexed": true,
          "internalType": "address",
          "name": "account",
          "type": "address"
        },
        {
          "indexed": true,
          "internalType": "address",
          "name": "sender",
          "type": "address"
        }
      ],
      "name": "RoleRevoked",
      "type": "event"
    },
    {
      "anonymous": false,
      "inputs": [
        {
          "indexed": true,
          "internalType": "address",
          "name": "from",
          "type": "address"
        },
        {
          "indexed": true,
          "internalType": "address",
          "name": "to",
          "type": "address"
        },
        {
          "indexed": true,
          "internalType": "uint256",
          "name": "tokenId",
          "type": "uint256"
        }
      ],
      "name": "Transfer",
      "type": "event"
    },
    {
      "inputs": [],
      "name": "DEFAULT_ADMIN_ROLE",
      "outputs": [
        {
          "internalType": "bytes32",
          "name": "",
          "type": "bytes32"
        }
      ],
      "stateMutability": "view",
      "type": "function"
    },
    {
      "inputs": [],
      "name": "MINTER_ROLE",
      "outputs": [
        {
          "internalType": "bytes32",
          "name": "",
          "type": "bytes32"
        }
      ],
      "stateMutability": "view",
      "type": "function"
    },
    {
      "inputs": [
        {
          "internalType": "address",
          "name": "to",
          "type": "address"
        },
        {
          "internalType": "uint256",
          "name": "tokenId",
          "type": "uint256"
        }
      ],
      "name": "approve",
      "outputs": [],
      "stateMutability": "nonpayable",
      "type": "function"
    },
    {
      "inputs": [
        {
          "internalType": "address",
          "name": "owner",
          "type": "address"
        }
      ],
      "name": "balanceOf",
      "outputs": [
        {
          "internalType": "uint256",
          "name": "",
          "type": "uint256"
        }
      ],
      "stateMutability": "view",
      "type": "function"
    },
    {
      "inputs": [
        {
          "internalType": "string",
          "name": "tokenURI",
          "type": "string"
        }
      ],
      "name": "createToken",
      "outputs": [
        {
          "internalType": "uint256",
          "name": "",
          "type": "uint256"
        }
      ],
      "stateMutability": "nonpayable",
      "type": "function"
    },
    {
      "inputs": [
        {
          "internalType": "uint256",
          "name": "tokenId",
          "type": "uint256"
        }
      ],
      "name": "getApproved",
      "outputs": [
        {
          "internalType": "address",
          "name": "",
          "type": "address"
        }
      ],
      "stateMutability": "view",
      "type": "function"
    },
    {
      "inputs": [
        {
          "internalType": "bytes32",
          "name": "role",
          "type": "bytes32"
        }
      ],
      "name": "getRoleAdmin",
      "outputs": [
        {
          "internalType": "bytes32",
          "name": "",
          "type": "bytes32"
        }
      ],
      "stateMutability": "view",
      "type": "function"
    },
    {
      "inputs": [
        {
          "internalType": "bytes32",
          "name": "role",
          "type": "bytes32"
        },
        {
          "internalType": "address",
          "name": "account",
          "type": "address"
        }
      ],
      "name": "grantRole",
      "outputs": [],
      "stateMutability": "nonpayable",
      "type": "function"
    },
    {
      "inputs": [
        {
          "internalType": "bytes32",
          "name": "role",
          "type": "bytes32"
        },
        {
          "internalType": "address",
          "name": "account",
          "type": "address"
        }
      ],
      "name": "hasRole",
      "outputs": [
        {
          "internalType": "bool",
          "name": "",
          "type": "bool"
        }
      ],
      "stateMutability": "view",
      "type": "function"
    },
    {
      "inputs": [
        {
          "internalType": "address",
          "name": "owner",
          "type": "address"
        },
        {
          "internalType": "address",
          "name": "operator",
          "type": "address"
        }
      ],
      "name": "isApprovedForAll",
      "outputs": [
        {
          "internalType": "bool",
          "name": "",
          "type": "bool"
        }
      ],
      "stateMutability": "view",
      "type": "function"
    },
    {
      "inputs": [],
      "name": "name",
      "outputs": [
        {
          "internalType": "string",
          "name": "",
          "type": "string"
        }
      ],
      "stateMutability": "view",
      "type": "function"
    },
    {
      "inputs": [
        {
          "internalType": "uint256",
          "name": "tokenId",
          "type": "uint256"
        }
      ],
      "name": "ownerOf",
      "outputs": [
        {
          "internalType": "address",
          "name": "",
          "type": "address"
        }
      ],
      "stateMutability": "view",
      "type": "function"
    },
    {
      "inputs": [
        {
          "internalType": "bytes32",
          "name": "role",
          "type": "bytes32"
        },
        {
          "internalType": "address",
          "name": "account",
          "type": "address"
        }
      ],
      "name": "renounceRole",
      "outputs": [],
      "stateMutability": "nonpayable",
      "type": "function"
    },
    {
      "inputs": [
        {
          "internalType": "bytes32",
          "name": "role",
          "type": "bytes32"
        },
        {
          "internalType": "address",
          "name": "account",
          "type": "address"
        }
      ],
      "name": "revokeRole",
      "outputs": [],
      "stateMutability": "nonpayable",
      "type": "function"
    },
    {
      "inputs": [
        {
          "internalType": "address",
          "name": "from",
          "type": "address"
        },
        {
          "internalType": "address",
          "name": "to",
          "type": "address"
        },
        {
          "internalType": "uint256",
          "name": "tokenId",
          "type": "uint256"
        }
      ],
      "name": "safeTransferFrom",
      "outputs": [],
      "stateMutability": "nonpayable",
      "type": "function"
    },
    {
      "inputs": [
        {
          "internalType": "address",
          "name": "from",
          "type": "address"
        },
        {
          "internalType": "address",
          "name": "to",
          "type": "address"
        },
        {
          "internalType": "uint256",
          "name": "tokenId",
          "type": "uint256"
        },
        {
          "internalType": "bytes",
          "name": "_data",
          "type": "bytes"
        }
      ],
      "name": "safeTransferFrom",
      "outputs": [],
      "stateMutability": "nonpayable",
      "type": "function"
    },
    {
      "inputs": [
        {
          "internalType": "address",
          "name": "operator",
          "type": "address"
        },
        {
          "internalType": "bool",
          "name": "approved",
          "type": "bool"
        }
      ],
      "name": "setApprovalForAll",
      "outputs": [],
      "stateMutability": "nonpayable",
      "type": "function"
    },
    {
      "inputs": [
        {
          "internalType": "bytes4",
          "name": "interfaceId",
          "type": "bytes4"
        }
      ],
      "name": "supportsInterface",
      "outputs": [
        {
          "internalType": "bool",
          "name": "",
          "type": "bool"
        }
      ],
      "stateMutability": "view",
      "type": "function"
    },
    {
      "inputs": [],
      "name": "symbol",
      "outputs": [
        {
          "internalType": "string",
          "name": "",
          "type": "string"
        }
      ],
      "stateMutability": "view",
      "type": "function"
    },
    {
      "inputs": [
        {
          "internalType": "uint256",
          "name": "tokenId",
          "type": "uint256"
        }
      ],
      "name": "tokenURI",
      "outputs": [
        {
          "internalType": "string",
          "name": "",
          "type": "string"
        }
      ],
      "stateMutability": "view",
      "type": "function"
    },
    {
      "inputs": [
        {
          "internalType": "address",
          "name": "from",
          "type": "address"
        },
        {
          "internalType": "address",
          "name": "to",
          "type": "address"
        },
        {
          "internalType": "uint256",
          "name": "tokenId",
          "type": "uint256"
        }
      ],
      "name": "transferFrom",
      "outputs": [],
      "stateMutability": "nonpayable",
      "type": "function"
    }
  ],
  "bytecode": "0x60806040523480156200001157600080fd5b5060405162001fc138038062001fc1833981016040819052620000349162000209565b604080518082018252600881526715185b184813919560c21b6020808301918252835180850190945260048452631513919560e21b908401528151919291620000809160009162000163565b5080516200009690600190602084019062000163565b50620000a891506000905082620000af565b5062000276565b620000bb8282620000bf565b5050565b60008281526007602090815260408083206001600160a01b038516845290915290205460ff16620000bb5760008281526007602090815260408083206001600160a01b03851684529091529020805460ff191660011790556200011f3390565b6001600160a01b0316816001600160a01b0316837f2f8788117e7eff1d82e926ec794901d17c78024a50270940304540a733656f0d60405160405180910390a45050565b828054620001719062000239565b90600052602060002090601f016020900481019282620001955760008555620001e0565b82601f10620001b057805160ff1916838001178555620001e0565b82800160010185558215620001e0579182015b82811115620001e0578251825591602001919060010190620001c3565b50620001ee929150620001f2565b5090565b5b80821115620001ee5760008155600101620001f3565b6000602082840312156200021b578081fd5b81516001600160a01b038116811462000232578182fd5b9392505050565b600181811c908216806200024e57607f821691505b602082108114156200027057634e487b7160e01b600052602260045260246000fd5b50919050565b611d3b80620002866000396000f3fe608060405234801561001057600080fd5b50600436106101375760003560e01c80636352211e116100b8578063a22cb4651161007c578063a22cb46514610292578063b88d4fde146102a5578063c87b56dd146102b8578063d5391393146102cb578063d547741f146102f2578063e985e9c51461030557600080fd5b80636352211e1461024957806370a082311461025c57806391d148541461026f57806395d89b4114610282578063a217fddf1461028a57600080fd5b8063248a9ca3116100ff578063248a9ca3146101cc5780632f2ff15d146101fd57806336568abe1461021057806342842e0e1461022357806345576f941461023657600080fd5b806301ffc9a71461013c57806306fdde0314610164578063081812fc14610179578063095ea7b3146101a457806323b872dd146101b9575b600080fd5b61014f61014a36600461195a565b610341565b60405190151581526020015b60405180910390f35b61016c610352565b60405161015b9190611ae5565b61018c610187366004611920565b6103e4565b6040516001600160a01b03909116815260200161015b565b6101b76101b23660046118f7565b610471565b005b6101b76101c7366004611809565b610587565b6101ef6101da366004611920565b60009081526007602052604090206001015490565b60405190815260200161015b565b6101b761020b366004611938565b6105b8565b6101b761021e366004611938565b6105de565b6101b7610231366004611809565b61065c565b6101ef610244366004611992565b610677565b61018c610257366004611920565b610717565b6101ef61026a3660046117bd565b61078e565b61014f61027d366004611938565b610815565b61016c610840565b6101ef600081565b6101b76102a03660046118bd565b61084f565b6101b76102b3366004611844565b610914565b61016c6102c6366004611920565b61094c565b6101ef7f9f2df0fed2c77648de5860a4cc508cd0818c85b8b8a1ab4ceeef8d981c8956a681565b6101b7610300366004611938565b610ac3565b61014f6103133660046117d7565b6001600160a01b03918216600090815260056020908152604080832093909416825291909152205460ff1690565b600061034c82610ae9565b92915050565b60606000805461036190611c40565b80601f016020809104026020016040519081016040528092919081815260200182805461038d90611c40565b80156103da5780601f106103af576101008083540402835291602001916103da565b820191906000526020600020905b8154815290600101906020018083116103bd57829003601f168201915b5050505050905090565b60006103ef82610b0e565b6104555760405162461bcd60e51b815260206004820152602c60248201527f4552433732313a20617070726f76656420717565727920666f72206e6f6e657860448201526b34b9ba32b73a103a37b5b2b760a11b60648201526084015b60405180910390fd5b506000908152600460205260409020546001600160a01b031690565b600061047c82610717565b9050806001600160a01b0316836001600160a01b031614156104ea5760405162461bcd60e51b815260206004820152602160248201527f4552433732313a20617070726f76616c20746f2063757272656e74206f776e656044820152603960f91b606482015260840161044c565b336001600160a01b038216148061050657506105068133610313565b6105785760405162461bcd60e51b815260206004820152603860248201527f4552433732313a20617070726f76652063616c6c6572206973206e6f74206f7760448201527f6e6572206e6f7220617070726f76656420666f7220616c6c0000000000000000606482015260840161044c565b6105828383610b2b565b505050565b6105913382610b99565b6105ad5760405162461bcd60e51b815260040161044c90611b4a565b610582838383610c7f565b6000828152600760205260409020600101546105d48133610e1f565b6105828383610e83565b6001600160a01b038116331461064e5760405162461bcd60e51b815260206004820152602f60248201527f416363657373436f6e74726f6c3a2063616e206f6e6c792072656e6f756e636560448201526e103937b632b9903337b91039b2b63360891b606482015260840161044c565b6106588282610f09565b5050565b61058283838360405180602001604052806000815250610914565b60006106a37f9f2df0fed2c77648de5860a4cc508cd0818c85b8b8a1ab4ceeef8d981c8956a633610815565b6106e85760405162461bcd60e51b815260206004820152601660248201527521b0b63632b91034b9903737ba10309036b4b73a32b960511b604482015260640161044c565b6106f6600880546001019055565b600061070160085490565b905061070d3382610f70565b61034c81846110a3565b6000818152600260205260408120546001600160a01b03168061034c5760405162461bcd60e51b815260206004820152602960248201527f4552433732313a206f776e657220717565727920666f72206e6f6e657869737460448201526832b73a103a37b5b2b760b91b606482015260840161044c565b60006001600160a01b0382166107f95760405162461bcd60e51b815260206004820152602a60248201527f4552433732313a2062616c616e636520717565727920666f7220746865207a65604482015269726f206164647265737360b01b606482015260840161044c565b506001600160a01b031660009081526003602052604090205490565b60009182526007602090815260408084206001600160a01b0393909316845291905290205460ff1690565b60606001805461036190611c40565b6001600160a01b0382163314156108a85760405162461bcd60e51b815260206004820152601960248201527f4552433732313a20617070726f766520746f2063616c6c657200000000000000604482015260640161044c565b3360008181526005602090815260408083206001600160a01b03871680855290835292819020805460ff191686151590811790915590519081529192917f17307eab39ab6107e8899845ad3d59bd9653f200f220920489ca2b5937696c31910160405180910390a35050565b61091e3383610b99565b61093a5760405162461bcd60e51b815260040161044c90611b4a565b6109468484848461112e565b50505050565b606061095782610b0e565b6109bd5760405162461bcd60e51b815260206004820152603160248201527f45524337323155524953746f726167653a2055524920717565727920666f72206044820152703737b732bc34b9ba32b73a103a37b5b2b760791b606482015260840161044c565b600082815260066020526040812080546109d690611c40565b80601f0160208091040260200160405190810160405280929190818152602001828054610a0290611c40565b8015610a4f5780601f10610a2457610100808354040283529160200191610a4f565b820191906000526020600020905b815481529060010190602001808311610a3257829003601f168201915b505050505090506000610a6d60408051602081019091526000815290565b9050805160001415610a80575092915050565b815115610ab2578082604051602001610a9a929190611a04565b60405160208183030381529060405292505050919050565b610abb84611161565b949350505050565b600082815260076020526040902060010154610adf8133610e1f565b6105828383610f09565b60006001600160e01b03198216637965db0b60e01b148061034c575061034c82611239565b6000908152600260205260409020546001600160a01b0316151590565b600081815260046020526040902080546001600160a01b0319166001600160a01b0384169081179091558190610b6082610717565b6001600160a01b03167f8c5be1e5ebec7d5bd14f71427d1e84f3dd0314c0f7b2291e5b200ac8c7c3b92560405160405180910390a45050565b6000610ba482610b0e565b610c055760405162461bcd60e51b815260206004820152602c60248201527f4552433732313a206f70657261746f7220717565727920666f72206e6f6e657860448201526b34b9ba32b73a103a37b5b2b760a11b606482015260840161044c565b6000610c1083610717565b9050806001600160a01b0316846001600160a01b03161480610c4b5750836001600160a01b0316610c40846103e4565b6001600160a01b0316145b80610abb57506001600160a01b0380821660009081526005602090815260408083209388168352929052205460ff16610abb565b826001600160a01b0316610c9282610717565b6001600160a01b031614610cfa5760405162461bcd60e51b815260206004820152602960248201527f4552433732313a207472616e73666572206f6620746f6b656e2074686174206960448201526839903737ba1037bbb760b91b606482015260840161044c565b6001600160a01b038216610d5c5760405162461bcd60e51b8152602060048201526024808201527f4552433732313a207472616e7366657220746f20746865207a65726f206164646044820152637265737360e01b606482015260840161044c565b610d67600082610b2b565b6001600160a01b0383166000908152600360205260408120805460019290610d90908490611be6565b90915550506001600160a01b0382166000908152600360205260408120805460019290610dbe908490611b9b565b909155505060008181526002602052604080822080546001600160a01b0319166001600160a01b0386811691821790925591518493918716917fddf252ad1be2c89b69c2b068fc378daa952ba7f163c4a11628f55a4df523b3ef91a4505050565b610e298282610815565b61065857610e41816001600160a01b03166014611289565b610e4c836020611289565b604051602001610e5d929190611a33565b60408051601f198184030181529082905262461bcd60e51b825261044c91600401611ae5565b610e8d8282610815565b6106585760008281526007602090815260408083206001600160a01b03851684529091529020805460ff19166001179055610ec53390565b6001600160a01b0316816001600160a01b0316837f2f8788117e7eff1d82e926ec794901d17c78024a50270940304540a733656f0d60405160405180910390a45050565b610f138282610815565b156106585760008281526007602090815260408083206001600160a01b0385168085529252808320805460ff1916905551339285917ff6391f5c32d9c69d2a47ea670b442974b53935d1edc7fd64eb21e047a839171b9190a45050565b6001600160a01b038216610fc65760405162461bcd60e51b815260206004820181905260248201527f4552433732313a206d696e7420746f20746865207a65726f2061646472657373604482015260640161044c565b610fcf81610b0e565b1561101c5760405162461bcd60e51b815260206004820152601c60248201527f4552433732313a20746f6b656e20616c7265616479206d696e74656400000000604482015260640161044c565b6001600160a01b0382166000908152600360205260408120805460019290611045908490611b9b565b909155505060008181526002602052604080822080546001600160a01b0319166001600160a01b03861690811790915590518392907fddf252ad1be2c89b69c2b068fc378daa952ba7f163c4a11628f55a4df523b3ef908290a45050565b6110ac82610b0e565b61110f5760405162461bcd60e51b815260206004820152602e60248201527f45524337323155524953746f726167653a2055524920736574206f66206e6f6e60448201526d32bc34b9ba32b73a103a37b5b2b760911b606482015260840161044c565b6000828152600660209081526040909120825161058292840190611692565b611139848484610c7f565b6111458484848461146b565b6109465760405162461bcd60e51b815260040161044c90611af8565b606061116c82610b0e565b6111d05760405162461bcd60e51b815260206004820152602f60248201527f4552433732314d657461646174613a2055524920717565727920666f72206e6f60448201526e3732bc34b9ba32b73a103a37b5b2b760891b606482015260840161044c565b60006111e760408051602081019091526000815290565b905060008151116112075760405180602001604052806000815250611232565b8061121184611578565b604051602001611222929190611a04565b6040516020818303038152906040525b9392505050565b60006001600160e01b031982166380ac58cd60e01b148061126a57506001600160e01b03198216635b5e139f60e01b145b8061034c57506301ffc9a760e01b6001600160e01b031983161461034c565b60606000611298836002611bc7565b6112a3906002611b9b565b67ffffffffffffffff8111156112c957634e487b7160e01b600052604160045260246000fd5b6040519080825280601f01601f1916602001820160405280156112f3576020820181803683370190505b509050600360fc1b8160008151811061131c57634e487b7160e01b600052603260045260246000fd5b60200101906001600160f81b031916908160001a905350600f60fb1b8160018151811061135957634e487b7160e01b600052603260045260246000fd5b60200101906001600160f81b031916908160001a905350600061137d846002611bc7565b611388906001611b9b565b90505b600181111561141c576f181899199a1a9b1b9c1cb0b131b232b360811b85600f16601081106113ca57634e487b7160e01b600052603260045260246000fd5b1a60f81b8282815181106113ee57634e487b7160e01b600052603260045260246000fd5b60200101906001600160f81b031916908160001a90535060049490941c9361141581611c29565b905061138b565b5083156112325760405162461bcd60e51b815260206004820181905260248201527f537472696e67733a20686578206c656e67746820696e73756666696369656e74604482015260640161044c565b60006001600160a01b0384163b1561156d57604051630a85bd0160e11b81526001600160a01b0385169063150b7a02906114af903390899088908890600401611aa8565b602060405180830381600087803b1580156114c957600080fd5b505af19250505080156114f9575060408051601f3d908101601f191682019092526114f691810190611976565b60015b611553573d808015611527576040519150601f19603f3d011682016040523d82523d6000602084013e61152c565b606091505b50805161154b5760405162461bcd60e51b815260040161044c90611af8565b805181602001fd5b6001600160e01b031916630a85bd0160e11b149050610abb565b506001949350505050565b60608161159c5750506040805180820190915260018152600360fc1b602082015290565b8160005b81156115c657806115b081611c7b565b91506115bf9050600a83611bb3565b91506115a0565b60008167ffffffffffffffff8111156115ef57634e487b7160e01b600052604160045260246000fd5b6040519080825280601f01601f191660200182016040528015611619576020820181803683370190505b5090505b8415610abb5761162e600183611be6565b915061163b600a86611c96565b611646906030611b9b565b60f81b81838151811061166957634e487b7160e01b600052603260045260246000fd5b60200101906001600160f81b031916908160001a90535061168b600a86611bb3565b945061161d565b82805461169e90611c40565b90600052602060002090601f0160209004810192826116c05760008555611706565b82601f106116d957805160ff1916838001178555611706565b82800160010185558215611706579182015b828111156117065782518255916020019190600101906116eb565b50611712929150611716565b5090565b5b808211156117125760008155600101611717565b600067ffffffffffffffff8084111561174657611746611cd6565b604051601f8501601f19908116603f0116810190828211818310171561176e5761176e611cd6565b8160405280935085815286868601111561178757600080fd5b858560208301376000602087830101525050509392505050565b80356001600160a01b03811681146117b857600080fd5b919050565b6000602082840312156117ce578081fd5b611232826117a1565b600080604083850312156117e9578081fd5b6117f2836117a1565b9150611800602084016117a1565b90509250929050565b60008060006060848603121561181d578081fd5b611826846117a1565b9250611834602085016117a1565b9150604084013590509250925092565b60008060008060808587031215611859578081fd5b611862856117a1565b9350611870602086016117a1565b925060408501359150606085013567ffffffffffffffff811115611892578182fd5b8501601f810187136118a2578182fd5b6118b18782356020840161172b565b91505092959194509250565b600080604083850312156118cf578182fd5b6118d8836117a1565b9150602083013580151581146118ec578182fd5b809150509250929050565b60008060408385031215611909578182fd5b611912836117a1565b946020939093013593505050565b600060208284031215611931578081fd5b5035919050565b6000806040838503121561194a578182fd5b82359150611800602084016117a1565b60006020828403121561196b578081fd5b813561123281611cec565b600060208284031215611987578081fd5b815161123281611cec565b6000602082840312156119a3578081fd5b813567ffffffffffffffff8111156119b9578182fd5b8201601f810184136119c9578182fd5b610abb8482356020840161172b565b600081518084526119f0816020860160208601611bfd565b601f01601f19169290920160200192915050565b60008351611a16818460208801611bfd565b835190830190611a2a818360208801611bfd565b01949350505050565b7f416363657373436f6e74726f6c3a206163636f756e7420000000000000000000815260008351611a6b816017850160208801611bfd565b7001034b99036b4b9b9b4b733903937b6329607d1b6017918401918201528351611a9c816028840160208801611bfd565b01602801949350505050565b6001600160a01b0385811682528416602082015260408101839052608060608201819052600090611adb908301846119d8565b9695505050505050565b60208152600061123260208301846119d8565b60208082526032908201527f4552433732313a207472616e7366657220746f206e6f6e20455243373231526560408201527131b2b4bb32b91034b6b83632b6b2b73a32b960711b606082015260800190565b60208082526031908201527f4552433732313a207472616e736665722063616c6c6572206973206e6f74206f6040820152701ddb995c881b9bdc88185c1c1c9bdd9959607a1b606082015260800190565b60008219821115611bae57611bae611caa565b500190565b600082611bc257611bc2611cc0565b500490565b6000816000190483118215151615611be157611be1611caa565b500290565b600082821015611bf857611bf8611caa565b500390565b60005b83811015611c18578181015183820152602001611c00565b838111156109465750506000910152565b600081611c3857611c38611caa565b506000190190565b600181811c90821680611c5457607f821691505b60208210811415611c7557634e487b7160e01b600052602260045260246000fd5b50919050565b6000600019821415611c8f57611c8f611caa565b5060010190565b600082611ca557611ca5611cc0565b500690565b634e487b7160e01b600052601160045260246000fd5b634e487b7160e01b600052601260045260246000fd5b634e487b7160e01b600052604160045260246000fd5b6001600160e01b031981168114611d0257600080fd5b5056fea2646970667358221220a07a693afb2b3b30f4a321a43dcaac126e34f30fc5fb6826b2c8e3bb6a8c77f864736f6c63430008040033",
  "linkReferences": {},
  "deployedLinkReferences": {}
}