{
  "_format": "hh-sol-artifact-1",
  "contractName": "TalaMarket",
  "sourceName": "contracts/TalaMarket.sol",
  "abi": [
    {
      "inputs": [
        {
          "internalType": "contract TalaNFT",
          "name": "token",
          "type": "address"
        }
      ],
      "stateMutability": "nonpayable",
      "type": "constructor"
    },
    {
      "anonymous": false,
      "inputs": [
        {
          "indexed": true,
          "internalType": "uint256",
          "name": "itemId",
          "type": "uint256"
        },
        {
          "indexed": true,
          "internalType": "address",
          "name": "nftContract",
          "type": "address"
        },
        {
          "indexed": false,
          "internalType": "address",
          "name": "seller",
          "type": "address"
        },
        {
          "indexed": false,
          "internalType": "address",
          "name": "owner",
          "type": "address"
        },
        {
          "indexed": false,
          "internalType": "uint256",
          "name": "price",
          "type": "uint256"
        },
        {
          "indexed": false,
          "internalType": "bool",
          "name": "sold",
          "type": "bool"
        }
      ],
      "name": "MarketItemCreated",
      "type": "event"
    },
    {
      "inputs": [
        {
          "internalType": "string",
          "name": "tokenURI",
          "type": "string"
        },
        {
          "internalType": "uint256",
          "name": "price",
          "type": "uint256"
        }
      ],
      "name": "createMarketItem",
      "outputs": [],
      "stateMutability": "payable",
      "type": "function"
    },
    {
      "inputs": [
        {
          "internalType": "uint256",
          "name": "itemId",
          "type": "uint256"
        }
      ],
      "name": "createMarketSale",
      "outputs": [],
      "stateMutability": "payable",
      "type": "function"
    },
    {
      "inputs": [],
      "name": "fetchItemsCreated",
      "outputs": [
        {
          "components": [
            {
              "internalType": "uint256",
              "name": "itemId",
              "type": "uint256"
            },
            {
              "internalType": "address",
              "name": "nftContract",
              "type": "address"
            },
            {
              "internalType": "address payable",
              "name": "seller",
              "type": "address"
            },
            {
              "internalType": "address payable",
              "name": "owner",
              "type": "address"
            },
            {
              "internalType": "uint256",
              "name": "price",
              "type": "uint256"
            },
            {
              "internalType": "bool",
              "name": "sold",
              "type": "bool"
            }
          ],
          "internalType": "struct TalaMarket.MarketItem[]",
          "name": "",
          "type": "tuple[]"
        }
      ],
      "stateMutability": "view",
      "type": "function"
    },
    {
      "inputs": [],
      "name": "fetchMarketItems",
      "outputs": [
        {
          "components": [
            {
              "internalType": "uint256",
              "name": "itemId",
              "type": "uint256"
            },
            {
              "internalType": "address",
              "name": "nftContract",
              "type": "address"
            },
            {
              "internalType": "address payable",
              "name": "seller",
              "type": "address"
            },
            {
              "internalType": "address payable",
              "name": "owner",
              "type": "address"
            },
            {
              "internalType": "uint256",
              "name": "price",
              "type": "uint256"
            },
            {
              "internalType": "bool",
              "name": "sold",
              "type": "bool"
            }
          ],
          "internalType": "struct TalaMarket.MarketItem[]",
          "name": "",
          "type": "tuple[]"
        }
      ],
      "stateMutability": "view",
      "type": "function"
    },
    {
      "inputs": [],
      "name": "fetchMyNFTs",
      "outputs": [
        {
          "components": [
            {
              "internalType": "uint256",
              "name": "itemId",
              "type": "uint256"
            },
            {
              "internalType": "address",
              "name": "nftContract",
              "type": "address"
            },
            {
              "internalType": "address payable",
              "name": "seller",
              "type": "address"
            },
            {
              "internalType": "address payable",
              "name": "owner",
              "type": "address"
            },
            {
              "internalType": "uint256",
              "name": "price",
              "type": "uint256"
            },
            {
              "internalType": "bool",
              "name": "sold",
              "type": "bool"
            }
          ],
          "internalType": "struct TalaMarket.MarketItem[]",
          "name": "",
          "type": "tuple[]"
        }
      ],
      "stateMutability": "view",
      "type": "function"
    },
    {
      "inputs": [],
      "name": "listingPrice",
      "outputs": [
        {
          "internalType": "uint256",
          "name": "",
          "type": "uint256"
        }
      ],
      "stateMutability": "view",
      "type": "function"
    },
    {
      "inputs": [
        {
          "internalType": "uint256",
          "name": "itemId",
          "type": "uint256"
        },
        {
          "internalType": "uint256",
          "name": "price",
          "type": "uint256"
        }
      ],
      "name": "updateMarketItem",
      "outputs": [],
      "stateMutability": "payable",
      "type": "function"
    }
  ],
  "bytecode": "0x60806040526658d15e1762800060055534801561001b57600080fd5b5060405161105738038061105783398101604081905261003a91610072565b600160005560048054336001600160a01b031991821617909155600380549091166001600160a01b03929092169190911790556100a0565b600060208284031215610083578081fd5b81516001600160a01b0381168114610099578182fd5b9392505050565b610fa8806100af6000396000f3fe6080604052600436106100705760003560e01c8063be9af5361161004e578063be9af536146100ca578063c78f19f9146100dd578063e85bea5d14610101578063f064c32e1461011457600080fd5b80630f08efe014610075578063202e3740146100a0578063255f8d7b146100b5575b600080fd5b34801561008157600080fd5b5061008a610129565b6040516100979190610da4565b60405180910390f35b3480156100ac57600080fd5b5061008a6102c8565b6100c86100c3366004610d83565b6104a5565b005b6100c86100d8366004610d53565b6105f4565b3480156100e957600080fd5b506100f360055481565b604051908152602001610097565b6100c861010f366004610ca1565b6107a6565b34801561012057600080fd5b5061008a610a38565b6060600061013660015490565b9050600061014360025490565b6001546101509190610f14565b90506000808267ffffffffffffffff81111561017c57634e487b7160e01b600052604160045260246000fd5b6040519080825280602002602001820160405280156101b557816020015b6101a2610c6c565b81526020019060019003908161019a5790505b50905060005b848110156102bf5760006006816101d3846001610efc565b81526020810191909152604001600020600301546001600160a01b031614156102ad576000610203826001610efc565b600081815260066020908152604091829020825160c0810184528154815260018201546001600160a01b039081169382019390935260028201548316938101939093526003810154909116606083015260048101546080830152600581015460ff16151560a083015285519293509185908790811061029257634e487b7160e01b600052603260045260246000fd5b60209081029190910101526102a8600186610efc565b945050505b806102b781610f2b565b9150506101bb565b50949350505050565b606060006102d560015490565b905060008060005b838110156103385733600660006102f5846001610efc565b81526020810191909152604001600020600301546001600160a01b0316141561032657610323600184610efc565b92505b8061033081610f2b565b9150506102dd565b5060008267ffffffffffffffff81111561036257634e487b7160e01b600052604160045260246000fd5b60405190808252806020026020018201604052801561039b57816020015b610388610c6c565b8152602001906001900390816103805790505b50905060005b848110156102bf5733600660006103b9846001610efc565b81526020810191909152604001600020600301546001600160a01b031614156104935760006103e9826001610efc565b600081815260066020908152604091829020825160c0810184528154815260018201546001600160a01b039081169382019390935260028201548316938101939093526003810154909116606083015260048101546080830152600581015460ff16151560a083015285519293509185908790811061047857634e487b7160e01b600052603260045260246000fd5b602090810291909101015261048e600186610efc565b945050505b8061049d81610f2b565b9150506103a1565b600260005414156104d15760405162461bcd60e51b81526004016104c890610ec5565b60405180910390fd5b6002600055806105235760405162461bcd60e51b815260206004820152601c60248201527f5072696365206d757374206265206174206c656173742031207765690000000060448201526064016104c8565b60055434146105445760405162461bcd60e51b81526004016104c890610e81565b6000828152600660205260409020600481018290556003810180546001600160a01b0319169055600501805460ff191690556105806002610c15565b6003546040516323b872dd60e01b8152336004820152306024820152604481018490526001600160a01b03909116906323b872dd906064015b600060405180830381600087803b1580156105d357600080fd5b505af11580156105e7573d6000803e3d6000fd5b5050600160005550505050565b600260005414156106175760405162461bcd60e51b81526004016104c890610ec5565b60026000908155818152600660205260409020600401543481146106a5576040805162461bcd60e51b81526020600482015260248101919091527f506c65617365207375626d6974207468652061736b696e67207072696365206960448201527f6e206f7264657220746f20636f6d706c6574652074686520707572636861736560648201526084016104c8565b6000828152600660205260408082206002015490516001600160a01b03909116913480156108fc02929091818181858888f193505050501580156106ed573d6000803e3d6000fd5b5060008281526006602052604090206003810180546001600160a01b03191633179055600501805460ff1916600117905561072c600280546001019055565b6004546005546040516001600160a01b039092169181156108fc0291906000818181858888f19350505050158015610768573d6000803e3d6000fd5b506003546040516323b872dd60e01b8152306004820152336024820152604481018490526001600160a01b03909116906323b872dd906064016105b9565b600260005414156107c95760405162461bcd60e51b81526004016104c890610ec5565b60026000558061081b5760405162461bcd60e51b815260206004820152601c60248201527f5072696365206d757374206265206174206c656173742031207765690000000060448201526064016104c8565b600554341461083c5760405162461bcd60e51b81526004016104c890610e81565b600354604051631155dbe560e21b81526000916001600160a01b0316906345576f949061086d908690600401610e2e565b602060405180830381600087803b15801561088757600080fd5b505af115801561089b573d6000803e3d6000fd5b505050506040513d601f19601f820116820180604052508101906108bf9190610d6b565b60035460405163a22cb46560e01b8152336004820152600160248201529192506001600160a01b03169063a22cb46590604401600060405180830381600087803b15801561090c57600080fd5b505af1158015610920573d6000803e3d6000fd5b50505050610932600180546001019055565b6040805160c081018252828152600380546001600160a01b03908116602080850191825233858701818152600060608089018281526080808b018e815260a08c018581528e8652600689528d86209c518d55985160018d0180546001600160a01b0319908116928d16929092179055955160028d0180548816918c1691909117905591518b8b018054909616908a16179094555160048a015594516005909801805460ff1916981515989098179097559454875191825291810186905295860188905290850193909352919091169183917fd6b5a2ea507e15741fd76fed025e0dfe9294bea94de5e3359d76d718efd991bd910160405180910390a35050600160005550565b60606000610a4560015490565b905060008060005b83811015610aa8573360066000610a65846001610efc565b81526020810191909152604001600020600201546001600160a01b03161415610a9657610a93600184610efc565b92505b80610aa081610f2b565b915050610a4d565b5060008267ffffffffffffffff811115610ad257634e487b7160e01b600052604160045260246000fd5b604051908082528060200260200182016040528015610b0b57816020015b610af8610c6c565b815260200190600190039081610af05790505b50905060005b848110156102bf573360066000610b29846001610efc565b81526020810191909152604001600020600201546001600160a01b03161415610c03576000610b59826001610efc565b600081815260066020908152604091829020825160c0810184528154815260018201546001600160a01b039081169382019390935260028201548316938101939093526003810154909116606083015260048101546080830152600581015460ff16151560a0830152855192935091859087908110610be857634e487b7160e01b600052603260045260246000fd5b6020908102919091010152610bfe600186610efc565b945050505b80610c0d81610f2b565b915050610b11565b805480610c645760405162461bcd60e51b815260206004820152601b60248201527f436f756e7465723a2064656372656d656e74206f766572666c6f77000000000060448201526064016104c8565b600019019055565b6040805160c081018252600080825260208201819052918101829052606081018290526080810182905260a081019190915290565b60008060408385031215610cb3578182fd5b823567ffffffffffffffff80821115610cca578384fd5b818501915085601f830112610cdd578384fd5b813581811115610cef57610cef610f5c565b604051601f8201601f19908116603f01168101908382118183101715610d1757610d17610f5c565b81604052828152886020848701011115610d2f578687fd5b82602086016020830137918201602090810196909652509694909301359450505050565b600060208284031215610d64578081fd5b5035919050565b600060208284031215610d7c578081fd5b5051919050565b60008060408385031215610d95578182fd5b50508035926020909101359150565b602080825282518282018190526000919060409081850190868401855b82811015610e2157815180518552868101516001600160a01b039081168887015286820151811687870152606080830151909116908601526080808201519086015260a09081015115159085015260c09093019290850190600101610dc1565b5091979650505050505050565b6000602080835283518082850152825b81811015610e5a57858101830151858201604001528201610e3e565b81811115610e6b5783604083870101525b50601f01601f1916929092016040019392505050565b60208082526024908201527f5072696365206d75737420626520657175616c20746f206c697374696e6720706040820152637269636560e01b606082015260800190565b6020808252601f908201527f5265656e7472616e637947756172643a207265656e7472616e742063616c6c00604082015260600190565b60008219821115610f0f57610f0f610f46565b500190565b600082821015610f2657610f26610f46565b500390565b6000600019821415610f3f57610f3f610f46565b5060010190565b634e487b7160e01b600052601160045260246000fd5b634e487b7160e01b600052604160045260246000fdfea26469706673582212206ab653157df80a76dfff077dd771472e8a06fa37c96ac60dfb9ccad0ebdb805564736f6c63430008040033",
  "linkReferences": {},
  "deployedLinkReferences": {}
}